{
	"data": {
		"bytecode": {
			"linkReferences": {},
			"object": "608060405260015f553480156012575f5ffd5b50610cfe806100205f395ff3fe608060405234801561000f575f5ffd5b5060043610610034575f3560e01c80639688c9af14610038578063c956f14314610054575b5f5ffd5b610052600480360381019061004d91906105a2565b610084565b005b61006e60048036038101906100699190610651565b6101ac565b60405161007b919061080b565b60405180910390f35b5f5f5490506040518061010001604052808281526020018781526020018681526020018581526020018481526020018381526020014281526020016001151581525060015f8381526020019081526020015f205f820151815f01556020820151816001015560408201518160020190816100fe9190610a28565b50606082015181600301556080820151816004015560a08201518160050190816101289190610b4f565b5060c0820151816006015560e0820151816007015f6101000a81548160ff0219169083151502179055509050505f5f81548092919061016690610c4b565b91905055507fcd61ec3886ae430db8b51de7203ddb514e6b6d0d092a7ae47990ca87b9a0d322818760405161019c929190610ca1565b60405180910390a1505050505050565b6101b4610343565b60015f8381526020019081526020015f20604051806101000160405290815f8201548152602001600182015481526020016002820180546101f490610858565b80601f016020809104026020016040519081016040528092919081815260200182805461022090610858565b801561026b5780601f106102425761010080835404028352916020019161026b565b820191905f5260205f20905b81548152906001019060200180831161024e57829003601f168201915b50505050508152602001600382015481526020016004820154815260200160058201805461029890610858565b80601f01602080910402602001604051908101604052809291908181526020018280546102c490610858565b801561030f5780601f106102e65761010080835404028352916020019161030f565b820191905f5260205f20905b8154815290600101906020018083116102f257829003601f168201915b5050505050815260200160068201548152602001600782015f9054906101000a900460ff1615151515815250509050919050565b6040518061010001604052805f81526020015f8152602001606081526020015f81526020015f8152602001606081526020015f81526020015f151581525090565b5f604051905090565b5f5ffd5b5f5ffd5b5f819050919050565b6103a781610395565b81146103b1575f5ffd5b50565b5f813590506103c28161039e565b92915050565b5f5ffd5b5f5ffd5b5f601f19601f8301169050919050565b7f4e487b71000000000000000000000000000000000000000000000000000000005f52604160045260245ffd5b610416826103d0565b810181811067ffffffffffffffff82111715610435576104346103e0565b5b80604052505050565b5f610447610384565b9050610453828261040d565b919050565b5f67ffffffffffffffff821115610472576104716103e0565b5b61047b826103d0565b9050602081019050919050565b828183375f83830152505050565b5f6104a86104a384610458565b61043e565b9050828152602081018484840111156104c4576104c36103cc565b5b6104cf848285610488565b509392505050565b5f82601f8301126104eb576104ea6103c8565b5b81356104fb848260208601610496565b91505092915050565b5f67ffffffffffffffff82111561051e5761051d6103e0565b5b610527826103d0565b9050602081019050919050565b5f61054661054184610504565b61043e565b905082815260208101848484011115610562576105616103cc565b5b61056d848285610488565b509392505050565b5f82601f830112610589576105886103c8565b5b8135610599848260208601610534565b91505092915050565b5f5f5f5f5f60a086880312156105bb576105ba61038d565b5b5f6105c8888289016103b4565b955050602086013567ffffffffffffffff8111156105e9576105e8610391565b5b6105f5888289016104d7565b9450506040610606888289016103b4565b9350506060610617888289016103b4565b925050608086013567ffffffffffffffff81111561063857610637610391565b5b61064488828901610575565b9150509295509295909350565b5f602082840312156106665761066561038d565b5b5f610673848285016103b4565b91505092915050565b61068581610395565b82525050565b5f81519050919050565b5f82825260208201905092915050565b8281835e5f83830152505050565b5f6106bd8261068b565b6106c78185610695565b93506106d78185602086016106a5565b6106e0816103d0565b840191505092915050565b5f81519050919050565b5f82825260208201905092915050565b5f61070f826106eb565b61071981856106f5565b93506107298185602086016106a5565b610732816103d0565b840191505092915050565b5f8115159050919050565b6107518161073d565b82525050565b5f61010083015f83015161076d5f86018261067c565b506020830151610780602086018261067c565b506040830151848203604086015261079882826106b3565b91505060608301516107ad606086018261067c565b5060808301516107c0608086018261067c565b5060a083015184820360a08601526107d88282610705565b91505060c08301516107ed60c086018261067c565b5060e083015161080060e0860182610748565b508091505092915050565b5f6020820190508181035f8301526108238184610757565b905092915050565b7f4e487b71000000000000000000000000000000000000000000000000000000005f52602260045260245ffd5b5f600282049050600182168061086f57607f821691505b6020821081036108825761088161082b565b5b50919050565b5f819050815f5260205f209050919050565b5f6020601f8301049050919050565b5f82821b905092915050565b5f600883026108e47fffffffffffffffffffffffffffffffffffffffffffffffffffffffffffffffff826108a9565b6108ee86836108a9565b95508019841693508086168417925050509392505050565b5f819050919050565b5f61092961092461091f84610395565b610906565b610395565b9050919050565b5f819050919050565b6109428361090f565b61095661094e82610930565b8484546108b5565b825550505050565b5f5f905090565b61096d61095e565b610978818484610939565b505050565b5b8181101561099b576109905f82610965565b60018101905061097e565b5050565b601f8211156109e0576109b181610888565b6109ba8461089a565b810160208510156109c9578190505b6109dd6109d58561089a565b83018261097d565b50505b505050565b5f82821c905092915050565b5f610a005f19846008026109e5565b1980831691505092915050565b5f610a1883836109f1565b9150826002028217905092915050565b610a318261068b565b67ffffffffffffffff811115610a4a57610a496103e0565b5b610a548254610858565b610a5f82828561099f565b5f60209050601f831160018114610a90575f8415610a7e578287015190505b610a888582610a0d565b865550610aef565b601f198416610a9e86610888565b5f5b82811015610ac557848901518255600182019150602085019450602081019050610aa0565b86831015610ae25784890151610ade601f8916826109f1565b8355505b6001600288020188555050505b505050505050565b5f819050815f5260205f209050919050565b601f821115610b4a57610b1b81610af7565b610b248461089a565b81016020851015610b33578190505b610b47610b3f8561089a565b83018261097d565b50505b505050565b610b58826106eb565b67ffffffffffffffff811115610b7157610b706103e0565b5b610b7b8254610858565b610b86828285610b09565b5f60209050601f831160018114610bb7575f8415610ba5578287015190505b610baf8582610a0d565b865550610c16565b601f198416610bc586610af7565b5f5b82811015610bec57848901518255600182019150602085019450602081019050610bc7565b86831015610c095784890151610c05601f8916826109f1565b8355505b6001600288020188555050505b505050505050565b7f4e487b71000000000000000000000000000000000000000000000000000000005f52601160045260245ffd5b5f610c5582610395565b91507fffffffffffffffffffffffffffffffffffffffffffffffffffffffffffffffff8203610c8757610c86610c1e565b5b600182019050919050565b610c9b81610395565b82525050565b5f604082019050610cb45f830185610c92565b610cc16020830184610c92565b939250505056fea26469706673582212203ccb903c15e2b186d4eb60e306df826db22c97547285dfd00079ca0f2407acb764736f6c634300081e0033",
			"opcodes": "PUSH1 0x80 PUSH1 0x40 MSTORE PUSH1 0x1 PUSH0 SSTORE CALLVALUE DUP1 ISZERO PUSH1 0x12 JUMPI PUSH0 PUSH0 REVERT JUMPDEST POP PUSH2 0xCFE DUP1 PUSH2 0x20 PUSH0 CODECOPY PUSH0 RETURN INVALID PUSH1 0x80 PUSH1 0x40 MSTORE CALLVALUE DUP1 ISZERO PUSH2 0xF JUMPI PUSH0 PUSH0 REVERT JUMPDEST POP PUSH1 0x4 CALLDATASIZE LT PUSH2 0x34 JUMPI PUSH0 CALLDATALOAD PUSH1 0xE0 SHR DUP1 PUSH4 0x9688C9AF EQ PUSH2 0x38 JUMPI DUP1 PUSH4 0xC956F143 EQ PUSH2 0x54 JUMPI JUMPDEST PUSH0 PUSH0 REVERT JUMPDEST PUSH2 0x52 PUSH1 0x4 DUP1 CALLDATASIZE SUB DUP2 ADD SWAP1 PUSH2 0x4D SWAP2 SWAP1 PUSH2 0x5A2 JUMP JUMPDEST PUSH2 0x84 JUMP JUMPDEST STOP JUMPDEST PUSH2 0x6E PUSH1 0x4 DUP1 CALLDATASIZE SUB DUP2 ADD SWAP1 PUSH2 0x69 SWAP2 SWAP1 PUSH2 0x651 JUMP JUMPDEST PUSH2 0x1AC JUMP JUMPDEST PUSH1 0x40 MLOAD PUSH2 0x7B SWAP2 SWAP1 PUSH2 0x80B JUMP JUMPDEST PUSH1 0x40 MLOAD DUP1 SWAP2 SUB SWAP1 RETURN JUMPDEST PUSH0 PUSH0 SLOAD SWAP1 POP PUSH1 0x40 MLOAD DUP1 PUSH2 0x100 ADD PUSH1 0x40 MSTORE DUP1 DUP3 DUP2 MSTORE PUSH1 0x20 ADD DUP8 DUP2 MSTORE PUSH1 0x20 ADD DUP7 DUP2 MSTORE PUSH1 0x20 ADD DUP6 DUP2 MSTORE PUSH1 0x20 ADD DUP5 DUP2 MSTORE PUSH1 0x20 ADD DUP4 DUP2 MSTORE PUSH1 0x20 ADD TIMESTAMP DUP2 MSTORE PUSH1 0x20 ADD PUSH1 0x1 ISZERO ISZERO DUP2 MSTORE POP PUSH1 0x1 PUSH0 DUP4 DUP2 MSTORE PUSH1 0x20 ADD SWAP1 DUP2 MSTORE PUSH1 0x20 ADD PUSH0 KECCAK256 PUSH0 DUP3 ADD MLOAD DUP2 PUSH0 ADD SSTORE PUSH1 0x20 DUP3 ADD MLOAD DUP2 PUSH1 0x1 ADD SSTORE PUSH1 0x40 DUP3 ADD MLOAD DUP2 PUSH1 0x2 ADD SWAP1 DUP2 PUSH2 0xFE SWAP2 SWAP1 PUSH2 0xA28 JUMP JUMPDEST POP PUSH1 0x60 DUP3 ADD MLOAD DUP2 PUSH1 0x3 ADD SSTORE PUSH1 0x80 DUP3 ADD MLOAD DUP2 PUSH1 0x4 ADD SSTORE PUSH1 0xA0 DUP3 ADD MLOAD DUP2 PUSH1 0x5 ADD SWAP1 DUP2 PUSH2 0x128 SWAP2 SWAP1 PUSH2 0xB4F JUMP JUMPDEST POP PUSH1 0xC0 DUP3 ADD MLOAD DUP2 PUSH1 0x6 ADD SSTORE PUSH1 0xE0 DUP3 ADD MLOAD DUP2 PUSH1 0x7 ADD PUSH0 PUSH2 0x100 EXP DUP2 SLOAD DUP2 PUSH1 0xFF MUL NOT AND SWAP1 DUP4 ISZERO ISZERO MUL OR SWAP1 SSTORE POP SWAP1 POP POP PUSH0 PUSH0 DUP2 SLOAD DUP1 SWAP3 SWAP2 SWAP1 PUSH2 0x166 SWAP1 PUSH2 0xC4B JUMP JUMPDEST SWAP2 SWAP1 POP SSTORE POP PUSH32 0xCD61EC3886AE430DB8B51DE7203DDB514E6B6D0D092A7AE47990CA87B9A0D322 DUP2 DUP8 PUSH1 0x40 MLOAD PUSH2 0x19C SWAP3 SWAP2 SWAP1 PUSH2 0xCA1 JUMP JUMPDEST PUSH1 0x40 MLOAD DUP1 SWAP2 SUB SWAP1 LOG1 POP POP POP POP POP POP JUMP JUMPDEST PUSH2 0x1B4 PUSH2 0x343 JUMP JUMPDEST PUSH1 0x1 PUSH0 DUP4 DUP2 MSTORE PUSH1 0x20 ADD SWAP1 DUP2 MSTORE PUSH1 0x20 ADD PUSH0 KECCAK256 PUSH1 0x40 MLOAD DUP1 PUSH2 0x100 ADD PUSH1 0x40 MSTORE SWAP1 DUP2 PUSH0 DUP3 ADD SLOAD DUP2 MSTORE PUSH1 0x20 ADD PUSH1 0x1 DUP3 ADD SLOAD DUP2 MSTORE PUSH1 0x20 ADD PUSH1 0x2 DUP3 ADD DUP1 SLOAD PUSH2 0x1F4 SWAP1 PUSH2 0x858 JUMP JUMPDEST DUP1 PUSH1 0x1F ADD PUSH1 0x20 DUP1 SWAP2 DIV MUL PUSH1 0x20 ADD PUSH1 0x40 MLOAD SWAP1 DUP2 ADD PUSH1 0x40 MSTORE DUP1 SWAP3 SWAP2 SWAP1 DUP2 DUP2 MSTORE PUSH1 0x20 ADD DUP3 DUP1 SLOAD PUSH2 0x220 SWAP1 PUSH2 0x858 JUMP JUMPDEST DUP1 ISZERO PUSH2 0x26B JUMPI DUP1 PUSH1 0x1F LT PUSH2 0x242 JUMPI PUSH2 0x100 DUP1 DUP4 SLOAD DIV MUL DUP4 MSTORE SWAP2 PUSH1 0x20 ADD SWAP2 PUSH2 0x26B JUMP JUMPDEST DUP3 ADD SWAP2 SWAP1 PUSH0 MSTORE PUSH1 0x20 PUSH0 KECCAK256 SWAP1 JUMPDEST DUP2 SLOAD DUP2 MSTORE SWAP1 PUSH1 0x1 ADD SWAP1 PUSH1 0x20 ADD DUP1 DUP4 GT PUSH2 0x24E JUMPI DUP3 SWAP1 SUB PUSH1 0x1F AND DUP3 ADD SWAP2 JUMPDEST POP POP POP POP POP DUP2 MSTORE PUSH1 0x20 ADD PUSH1 0x3 DUP3 ADD SLOAD DUP2 MSTORE PUSH1 0x20 ADD PUSH1 0x4 DUP3 ADD SLOAD DUP2 MSTORE PUSH1 0x20 ADD PUSH1 0x5 DUP3 ADD DUP1 SLOAD PUSH2 0x298 SWAP1 PUSH2 0x858 JUMP JUMPDEST DUP1 PUSH1 0x1F ADD PUSH1 0x20 DUP1 SWAP2 DIV MUL PUSH1 0x20 ADD PUSH1 0x40 MLOAD SWAP1 DUP2 ADD PUSH1 0x40 MSTORE DUP1 SWAP3 SWAP2 SWAP1 DUP2 DUP2 MSTORE PUSH1 0x20 ADD DUP3 DUP1 SLOAD PUSH2 0x2C4 SWAP1 PUSH2 0x858 JUMP JUMPDEST DUP1 ISZERO PUSH2 0x30F JUMPI DUP1 PUSH1 0x1F LT PUSH2 0x2E6 JUMPI PUSH2 0x100 DUP1 DUP4 SLOAD DIV MUL DUP4 MSTORE SWAP2 PUSH1 0x20 ADD SWAP2 PUSH2 0x30F JUMP JUMPDEST DUP3 ADD SWAP2 SWAP1 PUSH0 MSTORE PUSH1 0x20 PUSH0 KECCAK256 SWAP1 JUMPDEST DUP2 SLOAD DUP2 MSTORE SWAP1 PUSH1 0x1 ADD SWAP1 PUSH1 0x20 ADD DUP1 DUP4 GT PUSH2 0x2F2 JUMPI DUP3 SWAP1 SUB PUSH1 0x1F AND DUP3 ADD SWAP2 JUMPDEST POP POP POP POP POP DUP2 MSTORE PUSH1 0x20 ADD PUSH1 0x6 DUP3 ADD SLOAD DUP2 MSTORE PUSH1 0x20 ADD PUSH1 0x7 DUP3 ADD PUSH0 SWAP1 SLOAD SWAP1 PUSH2 0x100 EXP SWAP1 DIV PUSH1 0xFF AND ISZERO ISZERO ISZERO ISZERO DUP2 MSTORE POP POP SWAP1 POP SWAP2 SWAP1 POP JUMP JUMPDEST PUSH1 0x40 MLOAD DUP1 PUSH2 0x100 ADD PUSH1 0x40 MSTORE DUP1 PUSH0 DUP2 MSTORE PUSH1 0x20 ADD PUSH0 DUP2 MSTORE PUSH1 0x20 ADD PUSH1 0x60 DUP2 MSTORE PUSH1 0x20 ADD PUSH0 DUP2 MSTORE PUSH1 0x20 ADD PUSH0 DUP2 MSTORE PUSH1 0x20 ADD PUSH1 0x60 DUP2 MSTORE PUSH1 0x20 ADD PUSH0 DUP2 MSTORE PUSH1 0x20 ADD PUSH0 ISZERO ISZERO DUP2 MSTORE POP SWAP1 JUMP JUMPDEST PUSH0 PUSH1 0x40 MLOAD SWAP1 POP SWAP1 JUMP JUMPDEST PUSH0 PUSH0 REVERT JUMPDEST PUSH0 PUSH0 REVERT JUMPDEST PUSH0 DUP2 SWAP1 POP SWAP2 SWAP1 POP JUMP JUMPDEST PUSH2 0x3A7 DUP2 PUSH2 0x395 JUMP JUMPDEST DUP2 EQ PUSH2 0x3B1 JUMPI PUSH0 PUSH0 REVERT JUMPDEST POP JUMP JUMPDEST PUSH0 DUP2 CALLDATALOAD SWAP1 POP PUSH2 0x3C2 DUP2 PUSH2 0x39E JUMP JUMPDEST SWAP3 SWAP2 POP POP JUMP JUMPDEST PUSH0 PUSH0 REVERT JUMPDEST PUSH0 PUSH0 REVERT JUMPDEST PUSH0 PUSH1 0x1F NOT PUSH1 0x1F DUP4 ADD AND SWAP1 POP SWAP2 SWAP1 POP JUMP JUMPDEST PUSH32 0x4E487B7100000000000000000000000000000000000000000000000000000000 PUSH0 MSTORE PUSH1 0x41 PUSH1 0x4 MSTORE PUSH1 0x24 PUSH0 REVERT JUMPDEST PUSH2 0x416 DUP3 PUSH2 0x3D0 JUMP JUMPDEST DUP2 ADD DUP2 DUP2 LT PUSH8 0xFFFFFFFFFFFFFFFF DUP3 GT OR ISZERO PUSH2 0x435 JUMPI PUSH2 0x434 PUSH2 0x3E0 JUMP JUMPDEST JUMPDEST DUP1 PUSH1 0x40 MSTORE POP POP POP JUMP JUMPDEST PUSH0 PUSH2 0x447 PUSH2 0x384 JUMP JUMPDEST SWAP1 POP PUSH2 0x453 DUP3 DUP3 PUSH2 0x40D JUMP JUMPDEST SWAP2 SWAP1 POP JUMP JUMPDEST PUSH0 PUSH8 0xFFFFFFFFFFFFFFFF DUP3 GT ISZERO PUSH2 0x472 JUMPI PUSH2 0x471 PUSH2 0x3E0 JUMP JUMPDEST JUMPDEST PUSH2 0x47B DUP3 PUSH2 0x3D0 JUMP JUMPDEST SWAP1 POP PUSH1 0x20 DUP2 ADD SWAP1 POP SWAP2 SWAP1 POP JUMP JUMPDEST DUP3 DUP2 DUP4 CALLDATACOPY PUSH0 DUP4 DUP4 ADD MSTORE POP POP POP JUMP JUMPDEST PUSH0 PUSH2 0x4A8 PUSH2 0x4A3 DUP5 PUSH2 0x458 JUMP JUMPDEST PUSH2 0x43E JUMP JUMPDEST SWAP1 POP DUP3 DUP2 MSTORE PUSH1 0x20 DUP2 ADD DUP5 DUP5 DUP5 ADD GT ISZERO PUSH2 0x4C4 JUMPI PUSH2 0x4C3 PUSH2 0x3CC JUMP JUMPDEST JUMPDEST PUSH2 0x4CF DUP5 DUP3 DUP6 PUSH2 0x488 JUMP JUMPDEST POP SWAP4 SWAP3 POP POP POP JUMP JUMPDEST PUSH0 DUP3 PUSH1 0x1F DUP4 ADD SLT PUSH2 0x4EB JUMPI PUSH2 0x4EA PUSH2 0x3C8 JUMP JUMPDEST JUMPDEST DUP2 CALLDATALOAD PUSH2 0x4FB DUP5 DUP3 PUSH1 0x20 DUP7 ADD PUSH2 0x496 JUMP JUMPDEST SWAP2 POP POP SWAP3 SWAP2 POP POP JUMP JUMPDEST PUSH0 PUSH8 0xFFFFFFFFFFFFFFFF DUP3 GT ISZERO PUSH2 0x51E JUMPI PUSH2 0x51D PUSH2 0x3E0 JUMP JUMPDEST JUMPDEST PUSH2 0x527 DUP3 PUSH2 0x3D0 JUMP JUMPDEST SWAP1 POP PUSH1 0x20 DUP2 ADD SWAP1 POP SWAP2 SWAP1 POP JUMP JUMPDEST PUSH0 PUSH2 0x546 PUSH2 0x541 DUP5 PUSH2 0x504 JUMP JUMPDEST PUSH2 0x43E JUMP JUMPDEST SWAP1 POP DUP3 DUP2 MSTORE PUSH1 0x20 DUP2 ADD DUP5 DUP5 DUP5 ADD GT ISZERO PUSH2 0x562 JUMPI PUSH2 0x561 PUSH2 0x3CC JUMP JUMPDEST JUMPDEST PUSH2 0x56D DUP5 DUP3 DUP6 PUSH2 0x488 JUMP JUMPDEST POP SWAP4 SWAP3 POP POP POP JUMP JUMPDEST PUSH0 DUP3 PUSH1 0x1F DUP4 ADD SLT PUSH2 0x589 JUMPI PUSH2 0x588 PUSH2 0x3C8 JUMP JUMPDEST JUMPDEST DUP2 CALLDATALOAD PUSH2 0x599 DUP5 DUP3 PUSH1 0x20 DUP7 ADD PUSH2 0x534 JUMP JUMPDEST SWAP2 POP POP SWAP3 SWAP2 POP POP JUMP JUMPDEST PUSH0 PUSH0 PUSH0 PUSH0 PUSH0 PUSH1 0xA0 DUP7 DUP9 SUB SLT ISZERO PUSH2 0x5BB JUMPI PUSH2 0x5BA PUSH2 0x38D JUMP JUMPDEST JUMPDEST PUSH0 PUSH2 0x5C8 DUP9 DUP3 DUP10 ADD PUSH2 0x3B4 JUMP JUMPDEST SWAP6 POP POP PUSH1 0x20 DUP7 ADD CALLDATALOAD PUSH8 0xFFFFFFFFFFFFFFFF DUP2 GT ISZERO PUSH2 0x5E9 JUMPI PUSH2 0x5E8 PUSH2 0x391 JUMP JUMPDEST JUMPDEST PUSH2 0x5F5 DUP9 DUP3 DUP10 ADD PUSH2 0x4D7 JUMP JUMPDEST SWAP5 POP POP PUSH1 0x40 PUSH2 0x606 DUP9 DUP3 DUP10 ADD PUSH2 0x3B4 JUMP JUMPDEST SWAP4 POP POP PUSH1 0x60 PUSH2 0x617 DUP9 DUP3 DUP10 ADD PUSH2 0x3B4 JUMP JUMPDEST SWAP3 POP POP PUSH1 0x80 DUP7 ADD CALLDATALOAD PUSH8 0xFFFFFFFFFFFFFFFF DUP2 GT ISZERO PUSH2 0x638 JUMPI PUSH2 0x637 PUSH2 0x391 JUMP JUMPDEST JUMPDEST PUSH2 0x644 DUP9 DUP3 DUP10 ADD PUSH2 0x575 JUMP JUMPDEST SWAP2 POP POP SWAP3 SWAP6 POP SWAP3 SWAP6 SWAP1 SWAP4 POP JUMP JUMPDEST PUSH0 PUSH1 0x20 DUP3 DUP5 SUB SLT ISZERO PUSH2 0x666 JUMPI PUSH2 0x665 PUSH2 0x38D JUMP JUMPDEST JUMPDEST PUSH0 PUSH2 0x673 DUP5 DUP3 DUP6 ADD PUSH2 0x3B4 JUMP JUMPDEST SWAP2 POP POP SWAP3 SWAP2 POP POP JUMP JUMPDEST PUSH2 0x685 DUP2 PUSH2 0x395 JUMP JUMPDEST DUP3 MSTORE POP POP JUMP JUMPDEST PUSH0 DUP2 MLOAD SWAP1 POP SWAP2 SWAP1 POP JUMP JUMPDEST PUSH0 DUP3 DUP3 MSTORE PUSH1 0x20 DUP3 ADD SWAP1 POP SWAP3 SWAP2 POP POP JUMP JUMPDEST DUP3 DUP2 DUP4 MCOPY PUSH0 DUP4 DUP4 ADD MSTORE POP POP POP JUMP JUMPDEST PUSH0 PUSH2 0x6BD DUP3 PUSH2 0x68B JUMP JUMPDEST PUSH2 0x6C7 DUP2 DUP6 PUSH2 0x695 JUMP JUMPDEST SWAP4 POP PUSH2 0x6D7 DUP2 DUP6 PUSH1 0x20 DUP7 ADD PUSH2 0x6A5 JUMP JUMPDEST PUSH2 0x6E0 DUP2 PUSH2 0x3D0 JUMP JUMPDEST DUP5 ADD SWAP2 POP POP SWAP3 SWAP2 POP POP JUMP JUMPDEST PUSH0 DUP2 MLOAD SWAP1 POP SWAP2 SWAP1 POP JUMP JUMPDEST PUSH0 DUP3 DUP3 MSTORE PUSH1 0x20 DUP3 ADD SWAP1 POP SWAP3 SWAP2 POP POP JUMP JUMPDEST PUSH0 PUSH2 0x70F DUP3 PUSH2 0x6EB JUMP JUMPDEST PUSH2 0x719 DUP2 DUP6 PUSH2 0x6F5 JUMP JUMPDEST SWAP4 POP PUSH2 0x729 DUP2 DUP6 PUSH1 0x20 DUP7 ADD PUSH2 0x6A5 JUMP JUMPDEST PUSH2 0x732 DUP2 PUSH2 0x3D0 JUMP JUMPDEST DUP5 ADD SWAP2 POP POP SWAP3 SWAP2 POP POP JUMP JUMPDEST PUSH0 DUP2 ISZERO ISZERO SWAP1 POP SWAP2 SWAP1 POP JUMP JUMPDEST PUSH2 0x751 DUP2 PUSH2 0x73D JUMP JUMPDEST DUP3 MSTORE POP POP JUMP JUMPDEST PUSH0 PUSH2 0x100 DUP4 ADD PUSH0 DUP4 ADD MLOAD PUSH2 0x76D PUSH0 DUP7 ADD DUP3 PUSH2 0x67C JUMP JUMPDEST POP PUSH1 0x20 DUP4 ADD MLOAD PUSH2 0x780 PUSH1 0x20 DUP7 ADD DUP3 PUSH2 0x67C JUMP JUMPDEST POP PUSH1 0x40 DUP4 ADD MLOAD DUP5 DUP3 SUB PUSH1 0x40 DUP7 ADD MSTORE PUSH2 0x798 DUP3 DUP3 PUSH2 0x6B3 JUMP JUMPDEST SWAP2 POP POP PUSH1 0x60 DUP4 ADD MLOAD PUSH2 0x7AD PUSH1 0x60 DUP7 ADD DUP3 PUSH2 0x67C JUMP JUMPDEST POP PUSH1 0x80 DUP4 ADD MLOAD PUSH2 0x7C0 PUSH1 0x80 DUP7 ADD DUP3 PUSH2 0x67C JUMP JUMPDEST POP PUSH1 0xA0 DUP4 ADD MLOAD DUP5 DUP3 SUB PUSH1 0xA0 DUP7 ADD MSTORE PUSH2 0x7D8 DUP3 DUP3 PUSH2 0x705 JUMP JUMPDEST SWAP2 POP POP PUSH1 0xC0 DUP4 ADD MLOAD PUSH2 0x7ED PUSH1 0xC0 DUP7 ADD DUP3 PUSH2 0x67C JUMP JUMPDEST POP PUSH1 0xE0 DUP4 ADD MLOAD PUSH2 0x800 PUSH1 0xE0 DUP7 ADD DUP3 PUSH2 0x748 JUMP JUMPDEST POP DUP1 SWAP2 POP POP SWAP3 SWAP2 POP POP JUMP JUMPDEST PUSH0 PUSH1 0x20 DUP3 ADD SWAP1 POP DUP2 DUP2 SUB PUSH0 DUP4 ADD MSTORE PUSH2 0x823 DUP2 DUP5 PUSH2 0x757 JUMP JUMPDEST SWAP1 POP SWAP3 SWAP2 POP POP JUMP JUMPDEST PUSH32 0x4E487B7100000000000000000000000000000000000000000000000000000000 PUSH0 MSTORE PUSH1 0x22 PUSH1 0x4 MSTORE PUSH1 0x24 PUSH0 REVERT JUMPDEST PUSH0 PUSH1 0x2 DUP3 DIV SWAP1 POP PUSH1 0x1 DUP3 AND DUP1 PUSH2 0x86F JUMPI PUSH1 0x7F DUP3 AND SWAP2 POP JUMPDEST PUSH1 0x20 DUP3 LT DUP2 SUB PUSH2 0x882 JUMPI PUSH2 0x881 PUSH2 0x82B JUMP JUMPDEST JUMPDEST POP SWAP2 SWAP1 POP JUMP JUMPDEST PUSH0 DUP2 SWAP1 POP DUP2 PUSH0 MSTORE PUSH1 0x20 PUSH0 KECCAK256 SWAP1 POP SWAP2 SWAP1 POP JUMP JUMPDEST PUSH0 PUSH1 0x20 PUSH1 0x1F DUP4 ADD DIV SWAP1 POP SWAP2 SWAP1 POP JUMP JUMPDEST PUSH0 DUP3 DUP3 SHL SWAP1 POP SWAP3 SWAP2 POP POP JUMP JUMPDEST PUSH0 PUSH1 0x8 DUP4 MUL PUSH2 0x8E4 PUSH32 0xFFFFFFFFFFFFFFFFFFFFFFFFFFFFFFFFFFFFFFFFFFFFFFFFFFFFFFFFFFFFFFFF DUP3 PUSH2 0x8A9 JUMP JUMPDEST PUSH2 0x8EE DUP7 DUP4 PUSH2 0x8A9 JUMP JUMPDEST SWAP6 POP DUP1 NOT DUP5 AND SWAP4 POP DUP1 DUP7 AND DUP5 OR SWAP3 POP POP POP SWAP4 SWAP3 POP POP POP JUMP JUMPDEST PUSH0 DUP2 SWAP1 POP SWAP2 SWAP1 POP JUMP JUMPDEST PUSH0 PUSH2 0x929 PUSH2 0x924 PUSH2 0x91F DUP5 PUSH2 0x395 JUMP JUMPDEST PUSH2 0x906 JUMP JUMPDEST PUSH2 0x395 JUMP JUMPDEST SWAP1 POP SWAP2 SWAP1 POP JUMP JUMPDEST PUSH0 DUP2 SWAP1 POP SWAP2 SWAP1 POP JUMP JUMPDEST PUSH2 0x942 DUP4 PUSH2 0x90F JUMP JUMPDEST PUSH2 0x956 PUSH2 0x94E DUP3 PUSH2 0x930 JUMP JUMPDEST DUP5 DUP5 SLOAD PUSH2 0x8B5 JUMP JUMPDEST DUP3 SSTORE POP POP POP POP JUMP JUMPDEST PUSH0 PUSH0 SWAP1 POP SWAP1 JUMP JUMPDEST PUSH2 0x96D PUSH2 0x95E JUMP JUMPDEST PUSH2 0x978 DUP2 DUP5 DUP5 PUSH2 0x939 JUMP JUMPDEST POP POP POP JUMP JUMPDEST JUMPDEST DUP2 DUP2 LT ISZERO PUSH2 0x99B JUMPI PUSH2 0x990 PUSH0 DUP3 PUSH2 0x965 JUMP JUMPDEST PUSH1 0x1 DUP2 ADD SWAP1 POP PUSH2 0x97E JUMP JUMPDEST POP POP JUMP JUMPDEST PUSH1 0x1F DUP3 GT ISZERO PUSH2 0x9E0 JUMPI PUSH2 0x9B1 DUP2 PUSH2 0x888 JUMP JUMPDEST PUSH2 0x9BA DUP5 PUSH2 0x89A JUMP JUMPDEST DUP2 ADD PUSH1 0x20 DUP6 LT ISZERO PUSH2 0x9C9 JUMPI DUP2 SWAP1 POP JUMPDEST PUSH2 0x9DD PUSH2 0x9D5 DUP6 PUSH2 0x89A JUMP JUMPDEST DUP4 ADD DUP3 PUSH2 0x97D JUMP JUMPDEST POP POP JUMPDEST POP POP POP JUMP JUMPDEST PUSH0 DUP3 DUP3 SHR SWAP1 POP SWAP3 SWAP2 POP POP JUMP JUMPDEST PUSH0 PUSH2 0xA00 PUSH0 NOT DUP5 PUSH1 0x8 MUL PUSH2 0x9E5 JUMP JUMPDEST NOT DUP1 DUP4 AND SWAP2 POP POP SWAP3 SWAP2 POP POP JUMP JUMPDEST PUSH0 PUSH2 0xA18 DUP4 DUP4 PUSH2 0x9F1 JUMP JUMPDEST SWAP2 POP DUP3 PUSH1 0x2 MUL DUP3 OR SWAP1 POP SWAP3 SWAP2 POP POP JUMP JUMPDEST PUSH2 0xA31 DUP3 PUSH2 0x68B JUMP JUMPDEST PUSH8 0xFFFFFFFFFFFFFFFF DUP2 GT ISZERO PUSH2 0xA4A JUMPI PUSH2 0xA49 PUSH2 0x3E0 JUMP JUMPDEST JUMPDEST PUSH2 0xA54 DUP3 SLOAD PUSH2 0x858 JUMP JUMPDEST PUSH2 0xA5F DUP3 DUP3 DUP6 PUSH2 0x99F JUMP JUMPDEST PUSH0 PUSH1 0x20 SWAP1 POP PUSH1 0x1F DUP4 GT PUSH1 0x1 DUP2 EQ PUSH2 0xA90 JUMPI PUSH0 DUP5 ISZERO PUSH2 0xA7E JUMPI DUP3 DUP8 ADD MLOAD SWAP1 POP JUMPDEST PUSH2 0xA88 DUP6 DUP3 PUSH2 0xA0D JUMP JUMPDEST DUP7 SSTORE POP PUSH2 0xAEF JUMP JUMPDEST PUSH1 0x1F NOT DUP5 AND PUSH2 0xA9E DUP7 PUSH2 0x888 JUMP JUMPDEST PUSH0 JUMPDEST DUP3 DUP2 LT ISZERO PUSH2 0xAC5 JUMPI DUP5 DUP10 ADD MLOAD DUP3 SSTORE PUSH1 0x1 DUP3 ADD SWAP2 POP PUSH1 0x20 DUP6 ADD SWAP5 POP PUSH1 0x20 DUP2 ADD SWAP1 POP PUSH2 0xAA0 JUMP JUMPDEST DUP7 DUP4 LT ISZERO PUSH2 0xAE2 JUMPI DUP5 DUP10 ADD MLOAD PUSH2 0xADE PUSH1 0x1F DUP10 AND DUP3 PUSH2 0x9F1 JUMP JUMPDEST DUP4 SSTORE POP JUMPDEST PUSH1 0x1 PUSH1 0x2 DUP9 MUL ADD DUP9 SSTORE POP POP POP JUMPDEST POP POP POP POP POP POP JUMP JUMPDEST PUSH0 DUP2 SWAP1 POP DUP2 PUSH0 MSTORE PUSH1 0x20 PUSH0 KECCAK256 SWAP1 POP SWAP2 SWAP1 POP JUMP JUMPDEST PUSH1 0x1F DUP3 GT ISZERO PUSH2 0xB4A JUMPI PUSH2 0xB1B DUP2 PUSH2 0xAF7 JUMP JUMPDEST PUSH2 0xB24 DUP5 PUSH2 0x89A JUMP JUMPDEST DUP2 ADD PUSH1 0x20 DUP6 LT ISZERO PUSH2 0xB33 JUMPI DUP2 SWAP1 POP JUMPDEST PUSH2 0xB47 PUSH2 0xB3F DUP6 PUSH2 0x89A JUMP JUMPDEST DUP4 ADD DUP3 PUSH2 0x97D JUMP JUMPDEST POP POP JUMPDEST POP POP POP JUMP JUMPDEST PUSH2 0xB58 DUP3 PUSH2 0x6EB JUMP JUMPDEST PUSH8 0xFFFFFFFFFFFFFFFF DUP2 GT ISZERO PUSH2 0xB71 JUMPI PUSH2 0xB70 PUSH2 0x3E0 JUMP JUMPDEST JUMPDEST PUSH2 0xB7B DUP3 SLOAD PUSH2 0x858 JUMP JUMPDEST PUSH2 0xB86 DUP3 DUP3 DUP6 PUSH2 0xB09 JUMP JUMPDEST PUSH0 PUSH1 0x20 SWAP1 POP PUSH1 0x1F DUP4 GT PUSH1 0x1 DUP2 EQ PUSH2 0xBB7 JUMPI PUSH0 DUP5 ISZERO PUSH2 0xBA5 JUMPI DUP3 DUP8 ADD MLOAD SWAP1 POP JUMPDEST PUSH2 0xBAF DUP6 DUP3 PUSH2 0xA0D JUMP JUMPDEST DUP7 SSTORE POP PUSH2 0xC16 JUMP JUMPDEST PUSH1 0x1F NOT DUP5 AND PUSH2 0xBC5 DUP7 PUSH2 0xAF7 JUMP JUMPDEST PUSH0 JUMPDEST DUP3 DUP2 LT ISZERO PUSH2 0xBEC JUMPI DUP5 DUP10 ADD MLOAD DUP3 SSTORE PUSH1 0x1 DUP3 ADD SWAP2 POP PUSH1 0x20 DUP6 ADD SWAP5 POP PUSH1 0x20 DUP2 ADD SWAP1 POP PUSH2 0xBC7 JUMP JUMPDEST DUP7 DUP4 LT ISZERO PUSH2 0xC09 JUMPI DUP5 DUP10 ADD MLOAD PUSH2 0xC05 PUSH1 0x1F DUP10 AND DUP3 PUSH2 0x9F1 JUMP JUMPDEST DUP4 SSTORE POP JUMPDEST PUSH1 0x1 PUSH1 0x2 DUP9 MUL ADD DUP9 SSTORE POP POP POP JUMPDEST POP POP POP POP POP POP JUMP JUMPDEST PUSH32 0x4E487B7100000000000000000000000000000000000000000000000000000000 PUSH0 MSTORE PUSH1 0x11 PUSH1 0x4 MSTORE PUSH1 0x24 PUSH0 REVERT JUMPDEST PUSH0 PUSH2 0xC55 DUP3 PUSH2 0x395 JUMP JUMPDEST SWAP2 POP PUSH32 0xFFFFFFFFFFFFFFFFFFFFFFFFFFFFFFFFFFFFFFFFFFFFFFFFFFFFFFFFFFFFFFFF DUP3 SUB PUSH2 0xC87 JUMPI PUSH2 0xC86 PUSH2 0xC1E JUMP JUMPDEST JUMPDEST PUSH1 0x1 DUP3 ADD SWAP1 POP SWAP2 SWAP1 POP JUMP JUMPDEST PUSH2 0xC9B DUP2 PUSH2 0x395 JUMP JUMPDEST DUP3 MSTORE POP POP JUMP JUMPDEST PUSH0 PUSH1 0x40 DUP3 ADD SWAP1 POP PUSH2 0xCB4 PUSH0 DUP4 ADD DUP6 PUSH2 0xC92 JUMP JUMPDEST PUSH2 0xCC1 PUSH1 0x20 DUP4 ADD DUP5 PUSH2 0xC92 JUMP JUMPDEST SWAP4 SWAP3 POP POP POP JUMP INVALID LOG2 PUSH5 0x6970667358 0x22 SLT KECCAK256 EXTCODECOPY 0xCB SWAP1 EXTCODECOPY ISZERO 0xE2 0xB1 DUP7 0xD4 0xEB PUSH1 0xE3 MOD 0xDF DUP3 PUSH14 0xB22C97547285DFD00079CA0F2407 0xAC 0xB7 PUSH5 0x736F6C6343 STOP ADDMOD 0x1E STOP CALLER "
		},
		"gasEstimates": {
			"creation": {
				"codeDepositCost": "665200",
				"executionCost": "22799",
				"totalCost": "687999"
			},
			"external": {
				"addEvidence(uint256,bytes,uint256,uint256,string)": "infinite",
				"getEvidence(uint256)": "infinite"
			}
		},
		"methodIdentifiers": {
			"addEvidence(uint256,bytes,uint256,uint256,string)": "9688c9af",
			"getEvidence(uint256)": "c956f143"
		}
	},
	"abi": [
		{
			"anonymous": false,
			"inputs": [
				{
					"indexed": false,
					"internalType": "uint256",
					"name": "evidenceId",
					"type": "uint256"
				},
				{
					"indexed": false,
					"internalType": "uint256",
					"name": "projectId",
					"type": "uint256"
				}
			],
			"name": "EvidenceAdded",
			"type": "event"
		},
		{
			"inputs": [
				{
					"internalType": "uint256",
					"name": "_projectId",
					"type": "uint256"
				},
				{
					"internalType": "bytes",
					"name": "_evidenceDataHash",
					"type": "bytes"
				},
				{
					"internalType": "uint256",
					"name": "_completionPercentage",
					"type": "uint256"
				},
				{
					"internalType": "uint256",
					"name": "_authenticityScore",
					"type": "uint256"
				},
				{
					"internalType": "string",
					"name": "_authenticatedBy",
					"type": "string"
				}
			],
			"name": "addEvidence",
			"outputs": [],
			"stateMutability": "nonpayable",
			"type": "function"
		},
		{
			"inputs": [
				{
					"internalType": "uint256",
					"name": "_evidenceId",
					"type": "uint256"
				}
			],
			"name": "getEvidence",
			"outputs": [
				{
					"components": [
						{
							"internalType": "uint256",
							"name": "evidenceId",
							"type": "uint256"
						},
						{
							"internalType": "uint256",
							"name": "projectId",
							"type": "uint256"
						},
						{
							"internalType": "bytes",
							"name": "evidenceDataHash",
							"type": "bytes"
						},
						{
							"internalType": "uint256",
							"name": "completionPercentage",
							"type": "uint256"
						},
						{
							"internalType": "uint256",
							"name": "authenticityScore",
							"type": "uint256"
						},
						{
							"internalType": "string",
							"name": "authenticatedBy",
							"type": "string"
						},
						{
							"internalType": "uint256",
							"name": "authenticatedOn",
							"type": "uint256"
						},
						{
							"internalType": "bool",
							"name": "isValid",
							"type": "bool"
						}
					],
					"internalType": "struct ProjectEvidence.Evidence",
					"name": "",
					"type": "tuple"
				}
			],
			"stateMutability": "view",
			"type": "function"
		}
	]
}